:020000021000EC
:10000000E03F082095010100FB000100E100010034
:10001000090101001901010029010100000000008F
:10002000000000000000000000000000E17401007A
:100030003901010000000000417501005901010073
:1000400001020100010201000102010001020100A0
:100050000102010001020100010201000102010090
:100060000102010001020100010201000102010080
:100070000102010001020100010201000102010070
:100080000102010001020100010201000102010060
:100090000102010001020100010201000102010050
:1000A0000102010001020100010201000102010040
:1000B0000102010001020100010201000102010030
:1000C000010201000102010001020100A84E02002C
:1000D00000C007200003000000C307206C0D0000D3
:1000E00004207146084203D0EFF3098000F0AEB857
:1000F000EFF3088000F0AAB8704708B5014806F091
:1001000057F9FEE7630C020008B5024806F050F903
:10011000FEE700BF6E0C020008B5024806F048F981
:10012000FEE700BF790C020008B5024806F040F96E
:10013000FEE700BF840C020008B5024806F038F95B
:10014000FEE700BF910C020008B5024806F030F946
:10015000FEE700BF9F0C020008B507F075F907F035
:1001600011FABDE8084007F083B90B4610B5401AF4
:100170005C1AA24203D9C45843F8044BF8E710BDF7
:100180000346002210B51C1AA14202D943F8042BE1
:10019000F9E710BD154800F089F9144800F089F915
:1001A000134C144DAC4209D3134DAC420ED254F84B
:1001B000080B54F8041CFFF7E3FFF6E794E803008C
:1001C0000C3454F8042CFFF7D0FFEBE70AF06CFC7A
:1001D00000F070FA07F038FB08F026FB4FF41640E9
:1001E00000F07CFB054806F0E3F8FEE7E03F08205E
:1001F000CC000100D8000100E0000100B30C0200B7
:1002000008B507F021F9094B094A1978094B10394B
:10021000C9B253F82130934203D1074806F0D7F80A
:10022000FEE79847BDE8084007F022B904ED00E07A
:100230004901010000C007202C0C02000028A4BFC7
:10024000014B43F82010704700C00720036888B0B6
:1002500000934368114A019383680293C368039330
:10026000036904934369059383690693C3690793FC
:100270000B4B9A64069ADA64059A013A1A65079A52
:100280005A654FF08043AA221A7200221A70009B0E
:10029000019B029B039B049B08B07047EFBEADDE41
:1002A00000400240012110B50F4B104C084623605E
:1002B00005F03CF84FF0FF3223689A614FF47A72F0
:1002C000DA6100221A620A4A5A6240F209225A612D
:1002D0005A6942F040025A611822064B83F8022301
:1002E00004221A6010BD00BF0080004008C3072030
:1002F00060E3160000E100E0084B10B51B68084CF5
:100300009A682188986889B28242F9D80B460022FF
:1003100042EA00021046194610BD00BF08C307207C
:1003200004C3072010B504468EB006A808F010F8E4
:100330000A9B069A05930B9B074904930C9B204646
:1003400003930D9B0293099B0193089B0093079BCA
:100350000CF012F90EB010BDFD0C020010B5044CEB
:1003600023681BB9012007F0EFFF2060206810BD53
:1003700000C3072038B52B4C236825461A6812F0B5
:10038000100F0ED010221A60FFF7E8FF2368D96A19
:1003900004F0F4F82268936803F51C5310331362D9
:1003A00038BD540707D504221A60FFF7D7FFBDE810
:1003B000384004F0F1B8D00707D501221A601A4A74
:1003C000138801339BB2138038BD910715D50222E3
:1003D0001A6006F09DFF022809D003F03FF92A6851
:1003E0009368D1690B4403F57A73D36138BD2A68E9
:1003F000536923F008035361F1E712070ED5082271
:10040000AA211A604FF080421172552111729A6828
:1004100002F5B71202F558725A6238BD03480BF064
:1004200061FEFEE708C3072004C30720DC0C0200BE
:1004300038B50D46044607F067F8094A01234DB167
:10044000D2F8C400A3400343C2F8C430BDE838402A
:1004500007F06AB8D2F8C410A34021EA0303F3E717
:1004600000C00F402DE9F0414FEA40080E4607F06A
:100470004BF842460320002108F030FF0A4F424665
:10048000D7E9004524EA000425EA010506F0030047
:10049000002108F023FF20432943C7E90001BDE8FC
:1004A000F04107F041B800BFA8C10F4080F30988B0
:1004B000704780F30888704780F311887047FFFF0A
:1004C000AA22034BC3F88C205522C3F88C20704716
:1004D00000C00F402DE9F04F00240C6014601C6038
:1004E00040F2FF14DFF860A04FF4FA55002604FB39
:1004F000055B06F1010CBBFBFCF8124FA8F5862545
:10050000A5F50E75BD421AD96646202EF1D1013CE3
:10051000052CE9D10020BDE8F08FB9F5807F4D466C
:10052000F2D005F10109B8FBF9FED645F5D88645AC
:100530000C6016601D60F0D10120BDE8F08F03252E
:10054000EFE700BF38320400A086010030B5002478
:100550002A4985B0D1F8803004AD23F0020345F874
:10056000044D01940294C1F88030FFF7A9FFD1F83F
:10057000803023F00103C1F88030FFF7A1FFC1F8FC
:100580000C41C1F88440FFF79BFF2B46C1F80441A2
:1005900002AA01A94BF68030FFF79CFF30B92B4629
:1005A00002AA01A945F6C050FFF794FF019B134929
:1005B00063F30F04029B63F317440023C1F80C316B
:1005C000C1F88440FFF77CFF0123C1F88030FFF7BA
:1005D00077FFD1F888305B01FBD5039BC1F804316C
:1005E0000323C1F88030FFF76BFF044AD2F888304C
:1005F00013F0407FFAD005B030BD00BF00C00F40FF
:10060000244BD3F88820C2F30162032AD3F80C21CB
:1006100002F003022DD1012A16D0022A1ED0D3F8EF
:1006200088101D48D3F88820D3F80431C1F30E0197
:1006300001FB0000C2F307420132B0FBF2F0DBB273
:100640000133B0FBF3F07047D3F888101348D3F8A8
:100650008820C1F30E01D3F80431E9E7D3F888000C
:10066000D3F88820C0F30E000130D3F80431000421
:10067000E0E7D3F80401012AC0B200F1010303D07E
:10068000022A03D00648DCE70648DAE74FF40040C8
:10069000D7E700BF00C00F4000127A0000366E019D
:1006A00000093D00001BB700014B1878704700BFE0
:1006B00018C3072030B585B005F012F8684604F07D
:1006C000B7FF774C009B2360019B6360029BA36094
:1006D000FFF73CFFFFF794FF724BB0FBF3F03C28B1
:1006E000714B00F29A80292880F0A180142800F232
:1006F0009B803A221A60082398226C4900200B76CE
:100700004B768B7681F82030694B83F8052383F88C
:10071000062383F8072383F80823902283F80A230B
:1007200083F80B2383F80C23702283F80E2383F8BD
:100730000F23582283F8122383F8132383F81423FA
:1007400083F81523782283F81923A02283F8002345
:1007500083F8012383F8022383F8032383F8042317
:1007600083F8092383F80D2383F8102383F81123DA
:1007700083F8162383F8172383F8182383F81A23A2
:1007800083F81B2383F81C2383F81E2383F81F237D
:1007900083F8202383F81D2383F8212383F8222361
:1007A000CB6823F4E0631B041B0C43F0BF6343F4EA
:1007B0000033CB60FFF780FE61B662B64FF416409F
:1007C00000F08CF83B4807F095FB3B4807F098FB9E
:1007D00000233A4C19462068022280680BF0D6FDAF
:1007E00000232068304C1946022240680BF0CEFDF1
:1007F00007F0A0FBD4F88031314D13F0010F1FD06A
:10080000304800F0B3F801232B70D4F8803143F066
:100810000103C4F8803105B030BD50280AD96428DE
:100820000BD945F23A0265E741F23A0262E742F239
:100830003A025FE743F23A025CE744F23A0259E7D0
:10084000D4F880319B0709D51F4800F08FF80223A8
:100850002B70D4F8803143F00203DAE7D4F880310A
:1008600013F0040319D0194B9A6C194B9A4208D112
:10087000052318482B7000F079F80022134B9A6476
:10088000C9E7042314482B7000F070F8D4F88031C5
:1008900043F00403C4F88031EFE72B70BBE700BFDF
:1008A0000CC3072040420F0000C00F4000ED00E0E5
:1008B00000E100E0550901003D090100E4C0072006
:1008C00018C30720C20D0200050E020000400240BE
:1008D000EFBEADDEDF0D0200FC0D020010B50446D8
:1008E000FFF78EFE2401B0FBF4F008F045FE002275
:1008F000104B08F005FD09F0C7F8012184B2032070
:10090000FFF796FD01210320FFF7ACFD0A4B1A68A3
:1009100022F0F0021A601A6842F050021A60802237
:10092000A3F500331A73220A1A710322E4B21C7071
:100930001A7310BD0000E03F00C00240034A136874
:10094000DB07FCD5024B1878704700BF14C000408D
:1009500000C00040034B044A187013685B06FCD5C6
:100960000120704700C0004014C0004008B5411E7F
:1009700011F8010F20B90A20BDE80840FFF7EABFCF
:10098000FFF7E8FFF4E730B504460D1F131B0344DF
:10099000032B0AD822F00303194402F00302013B9F
:1009A00018440A44914205D130BD55F8043F44F83B
:1009B000043BEBE711F8013B00F8013FF2E702448A
:1009C000904200D1704700F8011BF9E7024600F1A0
:1009D0000B010020C30143EA500312F8010B03444A
:1009E0008A4203F0FF00F5D17047036810B5044652
:1009F00053B119460A4611F8010B1F2810D93A289D
:100A0000F8D1591C8A4202D04FF0FF3010BD1B783C
:100A1000303BD9B20129F7D801321846226010BD07
:100A2000002010BD03692DE9F04101F109020D46D6
:100A300063B300242E2741694E1E16F8013F01348E
:100A4000202B19D0052B48D0092C01D11770013269
:100A5000A3F1410EBEF1190F0CD8082C8CBF4FF03A
:100A6000100C4FF0080C91F80CE01CEA0E0F1CBFA4
:100A70002033DBB2137001320B2CDED1CB7A2B7218
:100A8000CB692B600B8BAB80CB8AEB80002414707E
:100A9000AE693EB3036923B9002400233355BDE892
:100AA000F081EB69002BF7D04FF6FF73028C9A426E
:100AB000F2D0D0F81C80771E38F814000028ECD053
:100AC000002101F0FDFD0028E6D0EB69013B9C42CE
:100AD000E2D2013407F8010FEEE7092C4FF0E503ED
:100AE000C8D1B3E7BDE8F081F8B5056B00F1340774
:100AF000044601232A463946407802F05EFCA0B93C
:100B0000636AE269EB1A9342207101D30020F8BDB9
:100B1000E678012EFAD9E36939461D442A460123B5
:100B2000607802F04AFC013EF3E70120F8BD03794A
:100B30000BB1FFF7D9BF18467047FFFF70B50446E9
:100B4000FFF7F5FF054680BB2378032B25D163799A
:100B5000012B22D104F1340601464FF400723046D5
:100B6000FFF72DFF4AF65522A4F832220F4A3146EC
:100B7000626302F1FF5202F500522032C4F81822DB
:100B800062696078C4F81C222269C4F82022226AB3
:100B90000132226302F011FC657100226078114677
:100BA00002F027FC003018BF012070BD5252614195
:100BB000036B70B58B4205460E4611D0FFF7B7FFA9
:100BC000044610B10124204670BD0123324605F1D0
:100BD0003401687802F0D5FB0028F3D12E63F2E7E8
:100BE0000024F0E7002310B503714FF0FF330363D7
:100BF0000446FFF7DDFFA0B94AF65523B4F83222C8
:100C00009A4210D1D4F86A30084A23F07F439342C5
:100C10000AD0D4F8860020F07F40801A18BF012047
:100C200010BD032010BD022010BD00BF464154007E
:100C30000023F0B5036085B0074608461546FFF768
:100C4000D4FE061EC0F2F1807D4B53F82640002CE6
:100C500000F0ED80E06801F06FFD002800F0E98011
:100C60003C6023786BB1607802F083FBC10708D445
:100C7000002D00F0B78010F0040000D00A2005B06D
:100C8000F0BD0023F0B22370607002F05FFBC2077A
:100C900000F1D1800DB14307F0D400212046FFF7C9
:100CA000A1FF012840F0AC802146002291F8F631E6
:100CB0000BB1D1F8FA314DF822300132042A01F19A
:100CC0001001F3D100265DF82650002D00F08C8035
:100CD00029462046FFF786FF002840F08680B4F8BA
:100CE0003F30B3F5007F40F08980B4F84A1001B975
:100CF000A16D94F84420E161531E012BE2707DD870
:100D000094F84160A670002E78D0731E334275D1DE
:100D1000B4F845E01EF00F0FA4F808E06ED1B4F867
:100D2000473003B9636DB4F84270002F66D04A4370
:100D300007EB1E101044834260D31B1AB3FBF6F37B
:100D4000002B5BD040F6F576B3425BD94FF6F576D3
:100D5000B34294BF0226032602332F442844032EB5
:100D6000A36125626762E0624ED1BEF1000F45D1FA
:100D7000226E9B00A26203F2FF13B1EB532F3DD30F
:100D80004FF0FF33636123618023032E637122D10F
:100D9000B4F86430012B1ED1691C2046FFF708FF10
:100DA000C8B94AF65523B4F8322260719A4212D17A
:100DB000626B244B9A420ED103F1FF53D4F81822F0
:100DC00003F5005320339A4201BFD4F81C3263610B
:100DD000D4F8203223611C4A2670138801339BB259
:100DE0001380E38000204AE702200136042E7FF4BE
:100DF0006AAF032821D000283FF471AF0D203EE7F1
:100E00000025F6E70126A7E7BEF1000FF6D0022E77
:100E100017444FEA43021CBFD21803F00103A76234
:100E20000CBF134603EB5203A5E70B2027E70C206A
:100E300025E70F2023E7032021E701201FE700BF5C
:100E40001CC307205252614124C3072010B5044639
:100E5000A8B103689BB11A788AB1D9888288914277
:100E60000DD1D86801F068FC58B12368587802F0B9
:100E700080FA10F0010F14BF0320002010BD0920DC
:100E800010BD0F2010BD50B10F2905D84FF41A43E3
:100E900023FA01F1CB0702D4C06801F060BC7047AF
:100EA00083690239023B99423DBF8378C06A01FBE6
:100EB0000300002070470129F8B507460C464BD9BE
:100EC0008369994248D20378022B29D0032B34D06E
:100ED000012B41D101EB5106416A01EB5621FFF78D
:100EE00067FE10B14FF0FF30F8BD796AC6F3080312
:100EF00001363B4401EB5621384693F83450FFF756
:100F000057FE0028EED1C6F308063E4496F834009A
:100F1000E30745EA00204CBF0009C0F30B00F8BD11
:100F2000416A01EB1421FFF743FE0028DAD1660085
:100F300006F4FF763E44B08EF8BD416A01EBD41151
:100F4000FFF736FE0028CDD1A40004F4FE743C4423
:100F5000606B20F07040F8BD0120F8BD70B504460C
:100F600082680D46012AE18001D1022070BD03682C
:100F700099698A42F9D2BAB91978032901D1996AD3
:100F800099B919898D42F0D2986AE2600028ECD0B4
:100F9000236800EB1510343305F00F0503EB4515FE
:100FA00020616561002070BD11460A469E783601B9
:100FB000B5421146206802D2FFF772FFE5E7FFF75E
:100FC0007AFF431C024607D00128CED923689B69CB
:100FD0009842CAD2AD1BEBE7012070BD0129F8B5DC
:100FE00005460C46164660D9836999425DD203785E
:100FF000022B3AD0032B45D0012B54D101EB5107E2
:10100000416A01EB5721FFF7D3FD18BBC7F3080373
:1010100014F001042B4417BF93F83420F2B202F00D
:101020000F0132011CBF02F0F0020A4383F83420A2
:101030000123696A01372B7101EB57212846FFF71D
:10104000B7FD38B9C7F308072F4434B1C6F3071604
:1010500087F8346001232B71F8BD97F83430C6F35C
:10106000032623F00F031E43F2E7416A01EB14212C
:10107000FFF79EFD0028EDD1640004F4FF742C44BA
:10108000A686E7E7416A01EBD411FFF791FD00283E
:10109000E0D1A40004F4FE7434342B5903F07043FF
:1010A0001E432E51D6E70220D4E70220F8BDF8B542
:1010B00005460F4671B90669E6B183699E4228BFAD
:1010C00001263446AB6901349C4216D3012E13D855
:1010D000002408E0FFF7EFFE0128044635D901306F
:1010E00003D14FF0FF342046F8BDAB699C42FAD3E0
:1010F0003E46E6E70126E4E7022421462846FFF7BC
:10110000DAFE30B1411CECD001281ED0B442D9D156
:10111000DEE76FF0704221462846FFF75FFF90B987
:1011200057B96B692C615A1CDDD0013B6B616B793F
:1011300043F001036B71D6E7224639462846FFF794
:101140004DFF0028EDD00128CBD00124CBE72DE9BD
:10115000F843C68804460136B3B2894613B9042061
:10116000BDE8F8830369002BF9D016F00F0807D10A
:10117000C16801330361006859B903899E42EED208
:101180002368E680343303EB481363610020BDE835
:10119000F8838778013F17EA1617F1D1FFF78BFE26
:1011A0000128054602D80220BDE8F883421C02D17E
:1011B0000120BDE8F883206883699D4227D3B9F1F7
:1011C000000FCCD0E168FFF772FF0546002831D050
:1011D0000128E8D0431CEBD02068FFF7A8FC0146AB
:1011E0000028E5D120684FF400723430FFF7E7FBA8
:1011F000226829461046FFF753FE4FF0010910639D
:10120000206883789F4209D3036BDF1B0763E56087
:1012100029462068FFF744FE2061B1E780F804907A
:10122000FFF762FC0028C3D122680137136B01333A
:101230001363E5E70720BDE8F883FFFF2DE9F74FCB
:101240004FF0FF084FF6FF770646444607843169A2
:101250003068FFF7ADFC824600285ED175692B78B7
:10126000002B76D0E52B06D0E97A01F03F02090782
:1012700003D50F2A03D0378447E00F2A54D1D6F87C
:101280001CB0BBF1000F41D058063CD503F0BF04A1
:10129000F38895F80D8033846B7B434535D195F801
:1012A00000A001202AF0400A0AF1FF334FF00D0A96
:1012B0004FF000090AFB03FA274B19F80320AA5A3A
:1012C00078B3104601F01AFABAF17F0F01901CD8DA
:1012D0000AF101023BF81A00009201F00FFA01999D
:1012E000814212D1009A924609F10109B9F10D0F1C
:1012F000E2D12B78590603D510B13BF81A3023B947
:10130000013CE4B202E0A342C6D0FF2400213046F3
:10131000FFF71DFF8246002899D0504603B0BDE874
:10132000F08FBA42E0D0F0E724B92846FFF74EFB31
:101330004045F2D0B369DA7AD2079CD403F10B00AE
:101340009842EAD015F8011B13F8012B9142F7D00F
:1013500091E74FF0040AE0E79F0E02002DE9F74FF6
:101360000B7807462F2B884601D05C2B01D108F162
:1013700001080024BC6098F800301F2B00F2908018
:1013800021463846FFF7EAFD7C6103B0BDE8F08FE7
:1013900025F8020F464693E02028A04434BF0424D9
:1013A00000240BEB4602002E00F0A98032F8021D4B
:1013B000202902D02E2940F0A680013EF3E701311A
:1013C0003BF81120202AFAD02E2AF8D009B144F097
:1013D00003044A4632F8020D2E2801D0013EF9D10D
:1013E0004FF0000A4FF0080955463BF811004A1C1F
:1013F000002800F09F80202804D02E2806D1B24279
:1014000000F08D8044F003041146EEE7CA4580F0F9
:101410008980B24211D1B9F10B0F06D186E0B242F8
:1014200003D044F0030400F28580AD00EDB23246F3
:101430004FF00B094FF0080AE6E77F280DD900218D
:10144000019201F03DF9019A18B15D4B184410F872
:10145000800C80B244F0020438B15A4B13F8011FDB
:10146000002900F09F808142F8D15F2044F00304FE
:10147000B96901F80A000AF1010AC5E745F0020559
:10148000F6E75A0781D47A69D37ADB0639D5396809
:10149000538B0978032904BF928A43EA0243BB6055
:1014A00098F8003044462F2B08F10108F8D05C2B47
:1014B000F6D00026D7F81CB004F1FF39ABF10205D5
:1014C00019F8010F06F101081F287FF665AF2F28D4
:1014D0003FF462AF5C283FF45FAFB8F1810F0ED0EC
:1014E000012101F0EDF850B17F283FF651AF3649A8
:1014F00011F8012F002A3FF44BAF8242F8D10620A9
:1015000043E7052041E7002520212BF816500B2248
:10151000B869FFF754FA0BEB4609294650E7CA456C
:10152000FFF479AFB9F10B0F7FF479AF4FF00B09EE
:1015300044F00304BB691A78E52A04BF05221A7037
:10154000B9F1080F04BFAD00EDB205F00C030C2B90
:1015500003D005F00302032A01D144F00204A107DD
:1015600009D405F00305012D08BF44F01004042B35
:1015700008BF44F00804BB690021DC723846FFF75D
:10158000EDFC10B93846FFF759FEBB69DB7A00283D
:101590003FF477AF04287FF4F8AE13F0040F08BFD0
:1015A0000520F2E6A0F1410119297FF667AFA0F10D
:1015B000610119299EBF203845F0010580B257E727
:1015C0001F0E0200FE0E0200F50E02000C222DE995
:1015D000F043866987B0C769044631460DEB0200C7
:1015E000FFF7D1F99DF81730DB0779D500234FF0CD
:1015F0000109DFF80882F372E3610B2203A9304688
:10160000FFF7C1F9B9F1050F4FD84B46072203F098
:101610000F0000F13001392988BF00F13701013A8C
:1016200001A810441B094170F1D17E2006A9114484
:1016300001F8140C9A423DD0F15C202938D1334492
:10164000072A8FBF202106A9891811F8141C98BFFA
:10165000013203F8011B991B0729F1D9002120460B
:10166000FFF77CFC0546A8BB2046FFF7E7FD0546D3
:1016700080BB09F10109B9F1640FBED107252846E5
:1016800007B0BDE8F083102102F0010505EB43032C
:10169000DD0348BF83EA080301394FEA5202F3D160
:1016A00030F8022F002AEED1B0E7B81E4B46F7E71C
:1016B0000133BFE71346C2E7013616E001261CE0FE
:1016C000074601212046FFF742FD0546E8B1042DFB
:1016D000D4D0D4E7042DD2D19DF81730F372E7614E
:1016E0009DF817309B07E9D5002637F81630002BF8
:1016F000E2D10D231936B6FBF3F600212046FFF7A1
:101700002DFC05460028E2D1074621692068FFF735
:101710004FFA05460028DAD163691B78E52B01D022
:10172000002BCDD10137BE42CBD1013E49D0E1885B
:101730002046891BFFF712FC054600289FD1A069AF
:10174000FFF744F94FF6FF790746DFF8B4802169C7
:101750002068FFF72DFA0546002890D10F22636913
:10176000D4F81CE0DA720D22F1B24D1E6A43054630
:101770005F7318735883484518BF3EF8120015F878
:1017800008C005F1010518BF013223F80C0000283C
:1017900008BF48460D2DEED1484502D03EF8122034
:1017A0000AB941F0400101221970236800211A7121
:1017B0002046FFF7CCFC054600287FF460AF013ED1
:1017C000C5D121692068FFF7F3F9054600287FF4A9
:1017D00056AF202229466069FFF7F1F80B22A16974
:1017E0006069FFF7D0F8A3696269DB7A03F0180338
:1017F0001373012223681A7141E700BF2110010011
:101800009F0E02002DE9F843FF2705463C460426BB
:101810004FF6FF79DFF8D080296911B9002E58D032
:101820004CE02868FFF7C4F90646002846D16869ED
:101830000378002B55D0E52B38D02E2B36D0C27A2A
:1018400002F03F02082A31D00F2A3DD159062BD58C
:1018500003F0BF04EB88477B2B84437BBB4225D13D
:1018600003784FF0010E03F03F035A1E0D2353433C
:101870000022EE6912F80810415ABEF1000F20D084
:101880007F2B13D88E4626F81310013301320D2A10
:10189000F0D10278520604D57F2B07D8002226F813
:1018A0001320013CE4B202E0A342D6D0FF24002181
:1018B0002846FFF74CFC06460028ADD000232B61DC
:1018C00008E04945E2D0F1E73CB9FFF77FF8B842BC
:1018D00003D100263046BDE8F8834FF6FF732B8412
:1018E000F8E70426EAE700BF9F0E0200012970B561
:1018F00004460D4601D8022070BD83699942FAD290
:10190000A3699D4205D229462046FFF7D4FA064630
:1019100008B9002070BD0128EDD0411C10D0002274
:1019200029462046FFF75AFB58B963695A1C05D06F
:1019300001336361637943F0010363713546DFE787
:10194000012070BDF0B585B0019004A840F8041DD9
:1019500000911646FFF749F8051E2ADB174F57F886
:1019600025404CB1E06800F0E5FE18B9022420469D
:1019700005B0F0BD00232370019989B9019C47F897
:101980002540002CF3D0012E15D16946002201A874
:10199000FFF74EF9044601460198FFF774FAE6E7AF
:1019A0000023E8B201F80C3B00F0BAFE0028DDD0BD
:1019B000E4E70B24DBE70024D9E700BF1CC30720C2
:1019C0002DE9F043D1B0019190460646002800F081
:1019D0008C80002302F01E02036001A906A8FFF715
:1019E00027F90546002874D103AB0C9301990FAB7E
:1019F00006A80D93FFF7B2FC0B9C10B9002C08BF92
:101A0000062018F01C0F08F01F073DD098B30428DB
:101A100002D106A8FFF7DAFD47F0080748BB0B9C88
:101A200038073BD501F0FEFC0023C4F80E000698F1
:101A3000E372E3610278B4F81A80032A08BFA28A2D
:101A40006383A3824FF0010308BF48EA0248037191
:101A5000B8F1000F22D04146D0F83090FFF746FF92
:101A600038B9069808F1FF3303614946FFF7A0F83B
:101A7000A0B105462DE0E37A13F0110F33D118F031
:101A8000040FCDD0082524E00028F2D1E37AD9064E
:101A900027D418F0020F01D0DA0724D43B07069BA5
:101AA00048BF47F020071A6BB771F2610022346219
:101AB000F2711978628B032904BFA18A42EA0142BC
:101AC0003261E2693360F2600022DB88B260B261A9
:101AD000B38029460698FFF7D6F9284651B0BDE8ED
:101AE000F0830425F5E70725F3E70925F5E72DE958
:101AF000F74F9B460023CBF8003004468946164634
:101B0000FFF7A4F9054610B1294620684AE0E179BB
:101B100039B12068FFF7B7F9E579284603B0BDE889
:101B2000F08FA379D80705D407212068FFF7ABF918
:101B30000725F2E7E368A768DF1BB74228BF3746EF
:101B400004F1240300930FB93946DEE7A268C2F31B
:101B50000803002B74D120688378013B03EA5223E9
:101B600013F0FF0311D12AB92069012808D80225F2
:101B7000E571C9E761690193FFF79DF9019BF4E7FE
:101B8000411C01D10125F3E76061D4F800A061692F
:101B900050460193FFF784F9019B30B90225504666
:101BA0002946E571FFF76FF9B7E77E0A00EB0308F6
:101BB00029D09AF802209919914288BFD61AF3B217
:101BC000424649469AF8010001F0DBFB0028D9D1D2
:101BD000A3795A060BD5A069A0EB0800864206D966
:101BE0004FF40072009909EB4020FEF7CCFE76021C
:101BF000A368B1443344A360DBF80030BF1B334417
:101C0000CBF800309FE7A269904517D0A3795B0617
:101C10000BD5012300999AF8010001F0CEFB0028B2
:101C2000B0D1A37923F04003A37120680123424679
:101C30000099407801F0A5FB0028A3D1C4F81880D2
:101C4000A1684846C1F30801C1F50076BE4228BF2D
:101C50003E46243132462144FEF795FEC8E72DE981
:101C6000F74F9B460023CBF8003004468946904648
:101C7000FFF7ECF8054610B12946206868E0E179E5
:101C800039B12068FFF7FFF8E579284603B0BDE8D1
:101C9000F08FA379990705D407212068FFF7F3F89F
:101CA0000725F2E7A36813EB080F05D204F124031C
:101CB0000193B8F1000F0AD1A368E268934200F2E1
:101CC000A280A379002143F02003A371D5E7A26885
:101CD000C2F30803002B40F0838020688378013B27
:101CE00003EA522313F0FF03009316D15AB9216976
:101CF00021B9FFF7DCF901460028DDD0012904D124
:101D00000225E571B8E76169F3E74A1C01D10125B5
:101D1000F7E72369616103B92161A3795B060CD5FB
:101D200020680123A2690199407801F046FB002850
:101D3000EDD1A37923F04003A371D4F800A0616929
:101D40005046FFF7ADF830B9022550462946E571F7
:101D5000FFF799F899E7009B5FEA582600EB030725
:101D60002DD0009A9AF8023032449A4288BF009AE5
:101D7000494688BF9E1AF3B23A469AF8010001F02C
:101D80001CFB0028C3D1A169C91B8E420AD94FF49C
:101D9000007209EB41210198FEF7F5FDA37923F0CC
:101DA0004003A3717602A368B1443344A360DBF817
:101DB0000030A8EB06083344CBF8003079E7A3697C
:101DC0009F420CD0A268E3689A4208D201233A46A7
:101DD00001999AF8010001F0D4FA002897D1A7617F
:101DE000A0684946C0F30800C0F50076464528BF04
:101DF0004646243032462044FEF7C5FDA37943F021
:101E00004003A371CFE7E3605BE770B50446FFF7DB
:101E10001DF80546002838D1A3799A0635D55B060A
:101E200013D520680123A26904F12401407801F050
:101E3000C4FA30B101212068FFF725F801252846B2
:101E400070BDA37923F04003A371E1692068FEF718
:101E5000AFFE0546C8B9266AF37A43F02003F37251
:101E6000E368F361236973831B0CB38201F0DAFA30
:101E70007582C6F81600A379206823F02003A371A9
:101E800001230371FEF75AFE054629462068FEF736
:101E9000FAFFD4E738B50546FFF7B7FF044648B95F
:101EA0002846FEF7D3FF044620B9286821462C6057
:101EB000FEF7E9FF204638BDF8B504460E46FEF7AA
:101EC000C5FF054610B1294620686AE0E17929B1CD
:101ED0002068FEF7D8FFE5792846F8BDE368B342ED
:101EE00004D2A27912F0020F08BF1E460022A36896
:101EF000A260002E30D1A368E2680021934281BF26
:101F0000E360A37943F02003A371DDE70026A36813
:101F1000C3F30803002BEED0A2699642EBD0A3795D
:101F200004F1240713F0400F0BD020680123394639
:101F3000407801F042FA002842D1A37923F040030F
:101F4000A3712068012332463946407801F019FA1E
:101F5000002835D1A661CEE7206887787F021BB3C1
:101F6000013B721EB2FBF7F2B3FBF7F18A421BD3BF
:101F70007A4213406169A360F61A0029C6D0BE42B6
:101F800023D8A3683344A360C6F30803002BBDD055
:101F900022681046FEF784FF90BB022510462946B2
:101FA000E571FEF770FF97E7216961B9FFF77FF8E8
:101FB0000128014602D10225E57184E7013001D1F3
:101FC0000125F9E721616161D7E7A37920689A07C4
:101FD00005D5FFF76CF8014620B93E46D1E7FEF77C
:101FE0006AFF01464B1CEBD00129E4D923689B69A9
:101FF0009942E0D2A36861613B44A360F61BBEE74F
:1020000000EB562683E730B5C9B00191054600289C
:1020100037D0002201A903A8FEF70AFE044688B9BA
:10202000039B01992B6004ABAB6107ABEB612846C6
:10203000FFF794F9044630BB6B697BB1DA7AD206BC
:1020400003D4052400232B6014E003995A8B0978EC
:10205000032904BF9B8A42EA0342AA60039B002132
:10206000DB882846AB80FEF779FF04280446E8D0D9
:10207000002CE7D121460398FEF705FF204649B022
:1020800030BD0924FAE70428DBD0DBE738B5054684
:10209000FEF7DCFE044620B9286821462C60FEF7D6
:1020A000F2FE204638BD70B5C4B004460E46FEF7B9
:1020B000CDFE0546E0B92EB901462046FEF74EFF9B
:1020C000054615E003ABC4F818D0E3612046FFF7DE
:1020D00099FB042813D1256131462046FEF7A2FC66
:1020E00000212046FFF733F80428E9D100232361BB
:1020F00020682946FEF7C7FE284644B070BD002878
:10210000DED1E9E72DE9F347144602AB43F8040DAD
:102110008846204600221946FEF78AFD24680546B7
:1021200030B9A7696369BA1E934209D8C8F800306C
:1021300020462946FEF7A7FE284602B0BDE8F087F4
:1021400094F80090B9F1010F17D1022706463946DD
:102150002046FEF7B0FE431C32D0012832D000B931
:102160000136A36901379F42F1D36379666143F079
:1021700001036371C8F80060DAE7034602460646C9
:10218000616A52B9204601F1010AFEF711FDD8B982
:1021900051464FF4007204F13403B9F1020F07D134
:1021A000188800B901360233023A013FE9D1DCE771
:1021B0001868043A30F0704008BF01360433F4E781
:1021C0000125D2E70225D0E70546CEE72DE9F04FFD
:1021D00089B008AB43F80C0D18460E461546FEF7BD
:1021E00004FC0028C0F2F781012E00F2F6816B1E7C
:1021F0002B40029340F0F181504B53F82040002CCB
:1022000000F0ED819DF80830C7B22370384601F028
:102210009DF8C20700F1E581430700F1E48107AAB8
:102220000121384601F0E5F818B1012009B0BDE8F8
:10223000F08F07997F29F8D9002E14BF4FF0000ABC
:102240004FF03F0AA1EB0A0107915DB94FF4FA6321
:10225000B1FBF3F33A4830F81520934218D3394BC9
:1022600033F815506D0A15D0802D28BF8025B1FB9D
:10227000F5F340F6F572934240F2F8814FF6F572AD
:10228000934200F2B28102335B004FF00208F4E1A6
:102290000135E0E70125EAE706AA0321384601F007
:1022A000A8F820B9069B013BB3F5004F01D30123E9
:1022B0000693069AB8F1030F02F1FF334B44C2F1C3
:1022C000000203EA0203A3EB0903069322D1019A59
:1022D0009B441A440192079A0099A2EB0B035B1AE4
:1022E0000399B8F1020FA3EB0103B3FBF5F30493D9
:1022F00014D140F6F5730499994240F2D581B2F5B4
:10230000803F34BF4FF004094FF006094EB34FF041
:10231000F0095DE0009A1A440092DCE7B8F1030F7F
:1023200012D14FF6F573049A9A4240F2BD81002E05
:1023300040F067814FF00C0913E000BF1CC3072079
:10234000060F0200AC0E0200B8F1010FD7D1B2F5B2
:10235000803F34BF4FF001094FF00609002E40F0D6
:102360006B8104F134064FF4007200213046FEF711
:1023700026FBFE2143F6C160DDF81CE084F8F7116E
:102380000AEB0E01B1FBF0F18808069184F8F9110F
:102390003F2101230022C4F8FA114AF6552140F0EA
:1023A0003F0084F8F801A4F8321284F8F33184F87D
:1023B000F43184F8F52184F8F691C4F8FEE1314651
:1023C000384600F0FAFF00287FF42FAF4FF0F809ED
:1023D00004F134064FF4007200213046FEF7EFFAA4
:1023E0000B22B2493046FEF7CEFA4FF40073A4F840
:1023F0003F300123B8F1030F84F84430029B18BF2B
:102400004FF4007384F84150A4F842B00293BDF831
:10241000083084F84990A4F84530079BC4F850A0D0
:10242000B3F5803F34BFA4F8473063653F23A4F879
:102430004C30FF23A4F84E3000F0F4FFB8F1030F46
:10244000069040F09C80009B1322A3650223236624
:102450000123A4F864300623A4F86630802384F8AE
:10246000743029239249C4F8770084F8763004F157
:102470007B00FEF788FA4AF655235246A4F832321A
:1024800031460123384600F098FF00287FF4CDAE96
:10249000B8F1030F06D101230AF10602314638468E
:1024A00000F08BFF4FF4007200213046FEF787FAF0
:1024B000B8F1030F74D0B8F1010F7E4B18BF6FF065
:1024C000FF0343EA090306936363019B314603F16B
:1024D0000109019A0123384600F06FFF01460028E8
:1024E0007FF4A3AE4FF400723046FEF768FA012382
:1024F0000693069B009A9A425DD8039B4A46B8F120
:10250000030F18BF1D464D4401233146384602F1E2
:10251000010B00F052FF00287FF487AEAB455A460E
:10252000F2D1B8F1030F21D1634B3146636303F15C
:10253000FF5303F500532033C4F81832049B384688
:10254000013BC4F81C320223C4F820324AF655235A
:10255000A4F8323201230AEB030200F02EFF01231C
:102560000AF107023146384600F027FF00223846BC
:10257000114600F03EFF003018BF012056E6BDF8BE
:102580000030C4F85B00A4F84A30802384F8583047
:102590002923132284F85A30484904F15F0068E780
:1025A00069F0FF03069363634FF0FF33A3636FF09B
:1025B0007043E36389E701234A463146384609F10F
:1025C000010B00F0FAFE00287FF42FAE069BD946DF
:1025D000013306938DE70B2028E6132026E60C2016
:1025E00024E6032022E60A2020E69B0003F20723CC
:1025F0005B0A009300234FF0030803934FF0200B76
:1026000043E004F134064FF4007200213046FEF737
:10261000D6F90B2225493046FEF7B5F94FF4007381
:10262000A4F83F30012384F84150A4F842B084F864
:1026300044304FF0F009EAE604F134064FF400723A
:1026400000213046FEF7BBF90B2218493046FEF751
:102650009AF94FF4007384F84150A4F83F30A4F87D
:1026600042B084F844804FF0F009CFE64FF0010803
:1026700003EB430301335B08033303F2FF135B0AED
:10268000009320234FF0010B03930BEB0A030193FC
:10269000039A009B03EB0209019B9944A5EB0A03F3
:1026A0004B449942BFF4F8AD0E20BFE5C20E0200C4
:1026B000CE0E020000FFFF0052526141E20E020006
:1026C0007F2810B516D931B1FF2812D80A4B8038AF
:1026D00033F8100010BD084A32F811408BB2844222
:1026E00003D001318029F7D10B4603F18000C0B23D
:1026F00010BD002010BD00BF1C0F020000230649C2
:1027000031F8132022B1824203D1044A32F8130077
:1027100070470133F4E700BF1C100200FC110200F7
:1027200010B501200C4604F079F82060003018BF85
:10273000012010BD0120704710B5044604F0E8FDEB
:1027400002280AD100234FF0FF321946204604F038
:10275000EBF8431E5842584110BD012010BD10B582
:10276000044604F0D5FD022807D100232046BDE829
:1027700010401A46194603F0CFBF10BD054B1B7819
:10278000253BDBB2032B9ABF034A52F823000020FB
:10279000704700BF2CC30720E41302001B4B2DE938
:1027A000F0411D880646B5F5007F0F46144603D15B
:1027B0002A46214638460BE0B5F5807F0CD12A46E3
:1027C00021463846B0472A4604F5807107F58070E7
:1027D0003346BDE8F0411847B5F5047F04D1510AEE
:1027E00089024FF40072E5E7B5F5847F0BD1140A36
:1027F00061024FF480723846B0474FF48072013462
:102800006102B818E4E7BDE8F08100BF2EC30720DD
:1028100010B5294B00294DDD0729027829DD9A6082
:10282000427808399A6082789A60C2789A60027910
:102830009A6042799A6082799A60C47900F10802BC
:102840009C609C696407FCD59C6804709C6844701B
:102850009C6884709C68C470DC68E406FCD49C6846
:1028600004719C6844719C6884719C68C4711046B2
:10287000D0E7032914DD9A60427804399A6082789F
:102880009A60C478021D9C60DC68E406FCD49C68F5
:1028900004709C6844709C6884709C68C470E6E70F
:1028A000441C9A600139DA68D206FCD49A68027036
:1028B0002046AFE710BD00BF0000034007B50B0C7A
:1028C0008DF805308DF807100B0A04218DF80400EF
:1028D0000DEB01008DF80630FFF79AFF03B05DF8AD
:1028E00004FBFFFFF7B5032340250E4C1746E561B7
:1028F0008DF804300B0C8DF805308DF807100B0A9D
:10290000042106460DEB01008DF80630FFF780FF2D
:1029100000223946304602F04DFDA561A561A56152
:1029200003B0F0BD00C0092040220D4BDA61D72270
:102930000C4B9A60DA68D206FCD40A4A9B68FF21E5
:1029400013469160D868C006FCD4986810F0800FD8
:10295000F7D04022024BC0B29A619A619A617047E7
:1029600000C0092000000340F7B5FFF7DDFF00239A
:1029700040271E4C1E4E23801E4BF7611A889B7801
:102980000546032101A8ADF804208DF80630FFF7B5
:102990003FFF9DF805209DF806301F2AB761B761FB
:1029A000B76115D1A3F12502032A11D8124A252BAC
:1029B000137005F0010011D1002814BF4FF480738B
:1029C0004FF484732380FFF7D9FE0C4B400A186044
:1029D0002088B0FA80F0400903B0F0BD002814BF91
:1029E0004FF400734FF40473ECE700BF2EC30720CD
:1029F00000C00920DC1302002CC3072028C30720D5
:102A00002DE9F0418B1817460F4A013B1268044626
:102A1000934212D84D020026FFF786FFDFF82C8084
:102A20002D1BBE4204EB05020ADA21464046FFF7A1
:102A3000B5FE04F500740136F3E70120BDE8F0812E
:102A40000020BDE8F08100BF28C30720E528010071
:102A50008B182DE9F04117460E4A013B126893424C
:102A600011D804460026DFF83080C0EB4125BE4275
:102A700004EB05020ADA21464046FFF78FFE04F513
:102A800000740136F3E70120BDE8F0810020BDE8C5
:102A9000F08100BF28C307207D2B010008B507285F
:102AA00005D8DFE800F0060A0F130808080804201C
:102AB00008BDFFF739FF002008BDFFF75FFE400AA1
:102AC0000860F8E74FF400730B80F4E701230B6014
:102AD000F1E7FFFF70B590B003466A466E4600F11D
:102AE0004005144618685968083303C4AB422246AF
:102AF000F7D14024074D0021EC619B20FFF7DEFE5B
:102B000021463046FFF784FEAC61AC61AC6110B089
:102B100070BD00BF00C0092070B540240646074DB7
:102B200000217720EC61FFF7C9FE21463046FFF710
:102B30006FFEAC61AC61AC6170BD00BF00C009202C
:102B400008B5064B198831F01F0104D0FFF716FEB7
:102B5000B0FBF1F008BD084608BD00BF2EC307203A
:102B6000014B1888704700BF2EC30720024B18780E
:102B7000003018BF012070472EC307204FF0FF33ED
:102B80002DE9F7430F46914601938046FFF7CCFEAF
:102B9000FFF7ECFF0646B8B14025194C194BE5612B
:102BA0001B880320B3F5847F0CBF4FF480714FF472
:102BB00000713943FFF782FE04210DEB0100FFF79E
:102BC00027FEA561A561A56140230D4C39468220F1
:102BD000E361FFF773FE01224946404602F0EAFB3B
:102BE0003EB1019B02A8013340F8043D0421FFF7E8
:102BF0000FFE4023A361A361A36103B0BDE8F0838E
:102C000000C009202EC3072037B540250421074BFB
:102C1000074C18680190E5610DEB0100FFF7F8FD26
:102C2000A561A561A56103B030BD00BFDF1302003F
:102C300000C0092008B5FDF75FFB4FF47A7200234E
:102C400007F010FA08BDFFFF10B50446FDF7D8FCE9
:102C5000074BB0FBF3F00223B0FBF3F2944202D334
:102C6000044A136110BDB3F5807FF9D00233F3E756
:102C700040420F0000000340034B9860DA68D20620
:102C8000FCD49868C0B270470000034070B5FFF7ED
:102C9000D1FF00F5FA74FF20FFF7EEFF0025FF20BB
:102CA000FFF7EAFFFF28064605D0FFF7C3FFA9425A
:102CB00008BFA042F3D3304670BDFFFF38B54FF0D8
:102CC0000075054CE561FFF7E1FF044AA561137843
:102CD00043F00103137038BD20C009208CC00720C9
:102CE0002DE9704306460D46FFF7A4FF6430804689
:102CF0004FF00009FF20FFF7BFFFFF2808D1FFF7C3
:102D000099FF494508BF4045F4D30020BDE87083D2
:102D1000FE28FAD1102D0ED900224FF40071304652
:102D200002F048FBFF20FFF7A7FFFF20FFF7A4FFFB
:102D30000120BDE87083341D0435FF20FFF79CFFA0
:102D400004F8040CFF20FFF797FF04F8030CFF20A2
:102D5000FFF792FF04F8020CFF20FFF78DFF043409
:102D600004F8050C2B1BDE42E7D1DBE770B5064605
:102D70000D46FFF78BFFFF28044619D12846FFF7C1
:102D80007BFFFD2D16D022464FF40071304602F035
:102D900011FB2046FFF770FF2046FFF76DFF20462E
:102DA000FFF76AFF00F01F00431F5842584170BDF3
:102DB000002070BD012070BD020638B504460D46E6
:102DC00007D500217720FFF7F7FF012836D804F058
:102DD0007F044FF000721A4B9A61DA61FFF756FFD9
:102DE000FF282AD12046FFF747FF280EFFF744FFB0
:102DF000C5F30740FFF740FFC5F30720FFF73CFF8F
:102E0000E8B2FFF739FF402C15D0482C14BF012041
:102E10008720FFF731FF4C2C02D1FF20FFF72CFF5A
:102E20000A21FF20FFF728FF030607D5013911F01B
:102E3000FF01F6D138BD9520EBE7FF2038BD00BF7C
:102E400020C00920064A074913784969DBB24901C5
:102E500054BF03F0FD0343F003031370704700BF3A
:102E60008CC0072020C009202DE9F743FFF7EAFFB7
:102E7000554B1A781E4612F0020F04D01878C0B2D3
:102E800003B0BDE8F0830120FFF7DEFE0A24FF2037
:102E9000013CFFF7F1FE14F0FF04F8D14FF000738E
:102EA0004A4F2146FB614020FFF786FF01288046FC
:102EB00013D04FF00008464B83F800804FF00073AA
:102EC000BB61B8F1000F7BD03378182003F0FE030C
:102ED0003370FFF7B9FE3078D1E7FFF7ABFE4FF460
:102EE000D57100F57A754820FFF766FF012840D1BB
:102EF0000DF10408FF20FFF7BFFE08F804000134BD
:102F0000042CF7D19DF80630012BD2D19DF8073063
:102F1000AA2BCED12C460025FFF78CFEA94208BF74
:102F2000A0421ED3FFF786FEA94208BFA042C0D22E
:102F300000217A20FFF740FF0028BAD10146FF2088
:102F4000FFF79AFE08F8010001310429F7D19DF836
:102F5000043013F0400F14BF4FF00C084FF004087A
:102F6000A9E74FF08041E920FFF726FF0028D3D1E1
:102F7000D8E72146E920FFF71FFF02282C4636BF7D
:102F80004FF0E9094FF041094FF002080025FFF723
:102F900051FEA94208BFA0420BD3FFF74BFEA94246
:102FA00008BFA04287D34FF400715020FFF704FF01
:102FB00081E700214846FFF7FFFE0028E7D1ECE754
:102FC000FFF77CFE87E700BF8CC0072020C00920E8
:102FD00030C3072008B5FFF735FF014B187808BD4F
:102FE0008CC0072070B5144606460846FFF72AFF36
:102FF000002C38D01E4B1B78DA0736D44FF0007205
:103000001C4DEA611C4A1278130758BF4002012C7C
:10301000014612D15120FFF7CFFE38B94FF40071AD
:103020003046FFF75DFEB0FA80F464094FF000739C
:10303000201CAB6118BF012070BD5220FFF7BCFE01
:103040000028F3D14FF400713046FFF749FE28B154
:10305000013C14F0FF0406F50076F3D100214C206A
:10306000FFF7AAFEE2E7042070BD032070BD00BF99
:103070008CC0072020C0092030C30720F8B51446B3
:1030800006460F46FFF7DEFE002C44D0254B1A788B
:10309000D10742D41B785A0741D44FF00072224D19
:1030A000EA61224A1278130758BF7F02012C12D11D
:1030B00039465820FFF780FE58BBFE213046FFF707
:1030C00055FEB0FA80F464094FF00073201CAB6128
:1030D00018BF0120F8BD12F0060F03D02146D720FB
:1030E000FFF76AFE39465920FFF766FE0028EBD14C
:1030F000FC213046FFF73AFE28B1013C14F0FF04F2
:1031000006F50076F4D1FD210020FFF72FFE002800
:10311000DAD10124D8E70420F8BD0320F8BD02204D
:10312000F8BD00BF8CC0072020C0092030C3072095
:103130007FB50D46FFF786FE05281AD12B78012BA7
:1031400015D005D3022B0BD00424204604B070BD4B
:103150007B4B5C6914F0806409D1FFF7AFFDF4E7A5
:10316000774B5B6983F08063C3F380636B700024EB
:10317000EBE7744B1B78DB0700F1E0800E2800F2D0
:10318000DB80DFE800F00817555AD9D9D9D9D9D949
:10319000A7ABBABDCD004FF00072694BDA61FFF703
:1031A00075FDB0F1FF0418BF01244FF00072644BAD
:1031B0009A61CAE700214920FFF7FEFD044608B1E5
:1031C0000124F2E710216846FFF78AFD0028F7D0B6
:1031D0009DF800309DF808109B09012B9DF80930DF
:1031E00006D15A1C02EB012292B292022A60DCE75D
:1031F0009DF807209DF80A00920002EB91129DF8BD
:1032000006100132890201F440610A449DF805105C
:103210005B0001F00F0101EBD011023103F0060356
:103220000B44DBB292B2093B02FA03F32B60BCE71A
:103230004FF400732B800024B7E7434E317811F030
:1032400004011CD00021CD20FFF7B6FD0028B7D126
:10325000FF20FFF711FD10216846FFF741FD002810
:10326000AED03024FF20FFF707FD601E10F0FF04F2
:10327000F8D19DF80A301A0910239340D6E7492067
:10328000FFF79AFD044600289AD110216846FFF7FF
:1032900027FD002894D030789DF80A3010F0020005
:1032A0009DF80B100AD05B009DF80D2003F07E0303
:1032B00003EBD11392090133013ADEE7CA0002F0B1
:1032C0001802C3F3840302EB5112013302FB0333F0
:1032D0002B60B0E71C4B1B782B70ACE7002149201A
:1032E000FFF76AFD00287FF46BAF10212846FFF737
:1032F000F7FCB0FA80F4640957E700214A20EFE7B1
:1033000000217A20FFF758FD00287FF459AF291DCE
:10331000FF20FFF7B1FC05F8010B8D42F8D18AE7D9
:103320000021CD20FFF748FD00287FF449AFFF20A2
:10333000FFF7A2FC4021D9E7042436E7032404E781
:1033400020C009208CC0072030C3072010B50446D8
:1033500001F012FE1CB1012C08D0042402E0FFF79A
:1033600003FB044601F020FE204610BDFFF77CFD64
:10337000F7E728B1012801D004207047FFF72ABEE3
:103380007047F8B507460C4615461E4601F0F4FD99
:103390001FB1012F0BD0042405E0324629462046F8
:1033A000FFF72EFB044601F0FFFD2046F8BD324634
:1033B00029462046FFF716FEF4E7F8B507460C4607
:1033C00015461E4601F0D8FD1FB1012F0BD0042475
:1033D00005E0324629462046FFF73AFB044601F055
:1033E000E3FD2046F8BD324629462046FFF746FE5B
:1033F000F4E770B506460C46154601F0BDFD1EB15A
:10340000012E0AD0042404E029462046FFF746FB9B
:10341000044601F0C9FD204670BD29462046FFF74D
:1034200087FEF5E71FB501A802F002F99DF8093003
:1034300003F00F009DF8083003F01F031B0443EA5C
:1034400040539DF8060000F01F0043EAC0239DF89A
:10345000050000F03F0043EA40139DF80400C0F36C
:1034600044000343BDF80A00400600F10840184339
:1034700005B05DF804FBFFFF70B5174E326822B946
:103480002021032003F026F93060144D2A6822B968
:103490002021012003F01EF92860114C216821B978
:1034A0000322012003F016F920604FF4FA6240F67F
:1034B000C311202000F0D2FA00F0AEF91620094A1C
:1034C000012101F00BFF306828B1286818B120688D
:1034D000003018BF012070BD3CC3072034C3072053
:1034E00038C3072091350100037970B503F0C0039C
:1034F000C02B0CBF0E4B0F4B01461D68002388B03C
:1035000006461A46284603F007F9044660B9034602
:1035100002466946284603F007FA2346224631460A
:10352000284603F0F9F80446204608B070BD00BFF5
:1035300034C307203CC3072038B504460D4600F0CD
:10354000E5FC237883420AD0E37843B908F0FAFD1A
:10355000BD2300F0030000FB033002F056FF00F033
:1035600053F900F045F9A9B2204600F071F900F0D6
:1035700065F900F051F903F0CBFE022804D1034BAA
:103580000021186803F09CF9012038BD38C30720DA
:10359000002307B502A941F8043D084B186803F061
:1035A0008FF9019B3BB14FF08052054B1A60BFF37E
:1035B0004F8FBFF36F8F03B05DF804FB38C3072054
:1035C00004ED00E038B504460D4600F067F948B157
:1035D000A9B2204600F06EF900F060F908B900F0D9
:1035E00065F9012038BD042938B505460DD1041C04
:1035F00018BF0124FCF780FE2CB14FF47A7200232F
:1036000006F030FD2860204638BD0024F2E7FFFFB9
:1036100000B50C4B8DB009930B4B0C4A0B930C4B24
:103620000A930CAB43F8102D002204920FCB8DE8C7
:103630000F00084B084A01216A2000F015FD0DB06B
:103640005DF804FB79340100C5350100E735010060
:1036500039350100E9340100F413020008B503F024
:1036600057FE0F4B02285B6912D15A020CD500F0AD
:103670001DFF002300280B4814BF01224FF0FF322A
:103680001946006803F050F9BDE8084000F0A6BDF7
:103690005B02F9D500F00AFF0028F5D108BD00BF94
:1036A00000C0092038C3072030B54FF48035364CB0
:1036B000E561364CA0602046C468E406FCD480680E
:1036C000C0B263B90B46314C5D1A954209DA13F862
:1036D000015BA560E568ED06FCD4A568F4E72B4B1B
:1036E00022B94FF48032284B9A6130BD072A0C78FA
:1036F00029DD9C604C78083A9C608C789C60CC7882
:103700009C600C799C604C799C608C799C60CD7934
:1037100001F108049D609D696D07FCD59D680D70E1
:103720009D684D709D688D709D68CD70DD68ED065B
:10373000FCD49D680D719D684D719D688D719D686B
:10374000CD712146CCE7032A14DD9C604C78043A05
:103750009C608C789C60CD780C1D9D60DD68ED06CA
:10376000FCD49D680D709D684D709D688D709D683E
:10377000CD70E6E74D1C9C60013ADC68E406FCD4A1
:103780009C680C702946ABE700C009200080084007
:10379000002307B502A901F8013D012300F01F0035
:1037A0001A46FFF781FF9DF8070003B05DF804FBA0
:1037B00013B502AC04F8011D00F01F000023012224
:1037C000214640F02000FFF76FFF02B010BD08B5A2
:1037D0001720FFF7DDFFC0F3001008BD70210720A0
:1037E000FFF7E6BF0A4600230146A020FFF75CBFB3
:1037F00008B50020FFF7CCFFBDE8084000F0FE014F
:103800000020FFF7D5BFFFFF4FF08072014BDA6158
:10381000704700BF20C0092008B50020FFF7B8FF9F
:1038200040F00101C9B20020FFF7C2FF4FF08072E3
:10383000014B9A6108BD00BF20C00920202107204C
:10384000FFF7B6BF0023E1201A461946FFF72CBF49
:1038500037B504460D46FFF7F5FF20462946FFF72A
:10386000C1FF4FF080720C4CA2610022ADF806201F
:10387000BDF8063001339BB2ADF8063033B94FF0D6
:103880008073E361FFF7DEFF03B030BDFFF79FFFFA
:103890000028EDD0F3E700BF20C0092008B51720AD
:1038A000FFF776FFC04300F0010008BD402107206C
:1038B000FFF77EBF08B50A46012301466120FFF7E6
:1038C000F3FEC0F3420008BD0023E2201A46194669
:1038D000FFF7EABE70B5064600200D461446FFF716
:1038E00057FF66B100F0BF006DB100F0DF016CB1B1
:1038F00001F0EF010020BDE87040FFF759BF40F034
:103900004000C0B2F0E740F02001F0E741F01001C4
:10391000F0E710B504460020FFF73AFF34B900F095
:10392000F7010020BDE81040FFF742BF012C04D191
:1039300000F0FB0141F00801F3E7022C14BF40F056
:10394000080140F00C01C9B2EBE708B50020FFF711
:103950001FFFBDE8084040F00201C9B20020FFF798
:1039600027BF08B50020FFF713FFBDE8084000F0AF
:10397000FD010020FFF71CBF40F6DD1398420BD875
:1039800040F66213B0F5166F38BF1846A0F5166101
:10399000C9B20520FFF70CBF1846F7E710B504467B
:1039A0000620FFF7F5FEFA2C00F0D70106D141F012
:1039B00020010620BDE81040FFF7FABEB4F5FA6F0B
:1039C00008BF41F00801F4E710B504460620FFF7F0
:1039D000DFFE032C28BF032420F0060141EA440146
:1039E000C9B20620BDE81040FFF7E2BEB0F57A6F1D
:1039F00028BF4FF47A60FA2838BFFA20FA23B0FBC8
:103A0000F3F30F2928BF0F21013BDBB241EA031179
:103A1000C9B20420FFF7CCBE1130C0B2162804D8BA
:103A2000202928BF2021FFF7C3BE7047032806D0F6
:103A3000042814BF032102210320FFF7B9BE01218E
:103A4000FAE70A46002301463020FFF72DBE0A465A
:103A5000002301462A20FFF727BEFFFF73B5044667
:103A60000E461546FFF730FFFFF7ECFE4FF0807271
:103A70002A4BDA61FFF775FF002201201146FFF79C
:103A800029FFFFF7ABFE0220FFF743FF3046FFF7A9
:103A900073FF2846FFF782FF0320FFF795FF0321FE
:103AA0000220FFF785FE00210120FFF781FE0321A0
:103AB0004FF4FA70FFF79AFF21460020FFF7ACFFA2
:103AC00000211220FFF774FE00211320FFF770FE83
:103AD00000211420FFF76CFE00211520FFF768FE7F
:103AE00000211620FFF764FE0D4B18681B7900902B
:103AF00005208DF80430FFF799FF68460521FFF790
:103B0000A0FF05216846FFF7A2FFFFF71EFF4FF455
:103B1000FA6002F07AFC02B070BD00BF20C009203C
:103B2000F9130200242310B54FF6FF7403FB0101C3
:103B3000884200D110BD43782BB1038C1344A342BB
:103B400028BF234603842430F2E7FFFF002337B564
:103B500002A840F8043D0C4B04215B6898470546D9
:103B60000A4B019A1C680421141B1A60084822465B
:103B7000FFF7D8FF224602210648FFF7D3FF281C93
:103B800018BF012003B030BD40C3072070C4072018
:103B900056C307200AC4072008B50B4B19780378D1
:103BA0008B420A4B0BBF1A889A880132013214BF2C
:103BB0009A801A80064B8170DB682021984700307C
:103BC00018BF012008BD00BF8DC00720E6C3072035
:103BD00040C307200A4B02781B789A42094B0BBF5F
:103BE000DA881A89013201320CBFDA801A8103792E
:103BF000C3F3C202073262F3C5030371FFF7CCBF00
:103C00008DC00720E6C30720002210B5064B13F82D
:103C100022409100844201D1581810BD0132042A7B
:103C2000F5D1002010BD00BF5FC4072070B1C3787C
:103C30000133DBB2FF2BC37008D100230448C11845
:103C4000CA7804335208102BCA70F8D1704700BFED
:103C50005FC407202422034602FB0101024630B55F
:103C600091420FD1044600259A4211D01979C1F32F
:103C7000C200198C41EA0041A94284BF1C460D468E
:103C80002433F1E71446243212F8235C002DE7D1E7
:103C9000204630BD38B50446C90001F10805FFF7DC
:103CA00055FF1C4B22781B789A4224D102211A48D6
:103CB000FFF7D0FF0023024680F8203080F8213043
:103CC000234690F8231080F8225021F07F01C5F39D
:103CD00006250D4380F8235004F1200153F8044BCE
:103CE0008B4242F8044BF9D10C4A0379127862F303
:103CF000C503037138BD04210948FFF7ABFFE37822
:103D0000002BD7D190F82330042543F0800380F8AE
:103D10002330CFE78DC007200AC4072094C00720B6
:103D200056C3072008B5FFF76FFF0346D8B9FFF762
:103D30006BFF0346B8B90D4AD378D179D07A8B425C
:103D400096BF1946131D1346814294BF0846084B7F
:103D5000D17B084A814238BF1346002206491A60C7
:103D6000CA7A0132CA72184608BD00BF5FC4072074
:103D700067C407206BC40720E6C307202DE9F0477E
:103D80004FF0240805460C46002708FB0218DFF810
:103D90005C91DFF85CA1A04501D1BDE8F08794F902
:103DA0002330002B29DACDB12B786278934209D1E8
:103DB00068782178884205D124220021204606F027
:103DC00071FF69E0E97849B16978914206D12278BA
:103DD0009A4203D1AA79A3799A42EDD094F823208C
:103DE00094F82230218C02F07F0243EA02239942A8
:103DF00052DB2046FFF7D0FEDEE76378002B4BD086
:103E0000002D32D02A7902F0C002C02A2BD12278AC
:103E100069788A4202D128789842CDD0E678A8788D
:103E2000864208D1994206D129788A4203D1A179E4
:103E3000AA799142C0D0A978E278914215D16A78E6
:103E40009A4212D121782A7891420ED1A179AA7989
:103E500091420AD1237984F8207067F3C50384F86E
:103E60002170237118E0002AE5D194F8231094F80A
:103E70002220208C01F07F0142EA012290420BDBDC
:103E8000227984F82070C2F3C201CEB284F8217086
:103E900026B12046FFF79EFE24347CE702F0C002E4
:103EA000C02A20D0207899F8002090421BD1E278D7
:103EB000934218D0BAB103226379E17062F3071319
:103EC00063712046FFF786FE23799AF8002062F39B
:103ED000C50323716078FFF797FE00B10760002EDD
:103EE0007FF46AAFD8E70126F4E700BF8DC0072052
:103EF00094C00720431EDBB2FD2B9DBF024B187000
:103F000001200020704700BF8DC00720014B1878AA
:103F1000704700BF8DC007202DE9F7430446914646
:103F20001E469DF828500F46002965D0344B93F863
:103F30000080414560D00F2E5ED800285ED0202240
:103F4000002106F0AFFEFF2F08BF4FF0000903224B
:103F50002379677069F3871362F30203294A84F8AF
:103F60000080127884F8028062F3C503264A237128
:103F700013780133DBB21370A3710BAB0193C5B996
:103F800001250123DFF88480384688F80030FFF7E8
:103F90003BFE0746FFF74AFE002388F800306379AE
:103FA0001FBB66F307136371E770284603B0BDE8D3
:103FB000F08304F10809019AE0791346526853F836
:103FC000081B00EB02085FFA88F8013DB8F1180FF2
:103FD0000193EDB207D8484406F03FFE84F807800D
:103FE000002DE8D1CCE70025CBE7BA7862F30713C0
:103FF00063717B78E370D8E70025D6E70546D4E700
:104000008DC0072094C007206FC4072055C3072028
:10401000012270B5134E0446327020B900250023EA
:104020002846337070BDFFF7B7FD05460028F5D070
:10403000237903F0C003402B10D0A3F180014A4242
:104040004A41C02B0BD1E3784BB16178994206D03D
:10405000617920460909FFF71DFEE0E70246002AC4
:10406000F6D1DCE755C3072082B02DE9F043914635
:10407000421ED2B28DB0FD2A05460E4615939DF81C
:10408000688005D900200DB0BDE8F04302B070474C
:10409000002BF7D0179F002FF4D0199B002BF1D0E5
:1040A000189B002BEED0169B002BEBD0002448224F
:1040B0000021234806F0F6FD90220021214806F059
:1040C000F1FD10220021204806F0ECFD1F4B1C6082
:1040D0005C609C601E4B1C605C609C601D4B1D7096
:1040E0001D4B1E4D1E7015AE0FCE0FC53368182226
:1040F00021461B482B6006F0D5FD4946172218487B
:1041000008F007FB21462046B8470028BAD0B8F18E
:10411000000F02D1FFF71AFDB5E706230293114BFA
:10412000224601930123FF21009304A8FFF7F4FE28
:104130000028A7D004A8FFF76BFF0028A2D0E9E76A
:104140000AC4072056C307205FC4072052C40720B3
:10415000E6C307208DC007205EC4072040C30720A8
:10416000F2C30720FE13020030B5182B8DB007D81C
:104170001D1CB2FA82F418BF01256409AC4201D1BA
:1041800000200EE00293019200950A469DF840300F
:10419000014604A8FFF7C0FE0028F1D004A8FFF7ED
:1041A00037FF0DB030BD13B5537914781B09009358
:1041B00002460B4620460321FFF7D6FF02B010BD92
:1041C00000231846044A12F8231009B10130C0B286
:1041D0000133042BF7D170475FC407202DE9F04766
:1041E00088B020220021684606F05CFDA34B1B78B6
:1041F00003F0FF042BBBA24F20213B696846984780
:1042000008B9002411E09F4D6B8801336B80FFF7E4
:10421000D7FF9DF80420A87202F00703032B13D0E8
:10422000994A137843F001031370FFF78FFC0422BF
:1042300096492046FFF7A2FD022295492046FFF746
:104240009DFD08B0BDE8F087924B9DF802E01E7816
:10425000B64504D18C4A137843F00203E4E78E4D4F
:104260002146A846C2F3C2029DF800009DF806C090
:104270005FFA82F901EB410313F805A0824523D1CF
:104280002B4493F801A0E2451ED19D789A70B5EBBE
:10429000090518BF01254FF001099DF80200FFF73D
:1042A00041FD9DF802200270427000228270FFF7EB
:1042B000BDFCB9F1000F01D0002DA2D09DF8003057
:1042C000B34233D16C46B0E701310429D2D17349EE
:1042D0000B689A70724A1870934283F801C006D135
:1042E000C1F80080864505D10025A946D5E70333EE
:1042F0000B60F7E78642F7D0FFF714FD0546FFF79E
:1043000095FC2B7833B19DF80530AA7803F00F03A4
:104310009342E9DC9DF800302B709DF802306B7001
:104320009DF80530C3F30303AB70DDE79DF8018012
:10433000B8F1FF0F1BD13B6820216846984720B990
:10434000514A137843F0040313709DF8053003F0CD
:104350000F02511C61F303038DF80530C3F30313FF
:104360009A42BFF64EAF6846FFF716FC49E746454E
:104370002ED1B9F1000F0CD19DF807304BB13B683D
:1043800020216846984720B93F4A137843F0040338
:1043900013709DF8043003F0C003402B12D19DF838
:1043A00007306A4623B918213E48FFF7FCFE89E72B
:1043B0000C213448FFF7F7FE002883D100216A461C
:1043C0000846F2E79DF80330002B7FF47BAFF5E75A
:1043D000354B1F78002F3FF414AF9DF8055005F0C2
:1043E0000F094FEA151AD145BFF60BAF4046FFF74C
:1043F0000BFC9DF8033009F1010969F303059E42A6
:104400008DF8055024D19DF8043003F0C003402BF3
:1044100003D0A3F180025742574150B3C02B4478D8
:1044200020D1A04512D0003418BF01243C4304F031
:104430000104D0B143788DF8033085786846FFF7E2
:10444000ABFB002C3FF43EAF294607E00024EDE72C
:10445000002B7FF437AF0028ECD151466846FFF7B8
:1044600019FC2FE73C46E5E73C4600258DF8035054
:10447000E4E7C02BF8D10446D8E700BF55C30720B6
:1044800040C30720E6C3072054C3072056C30720B4
:104490000AC407208DC0072052C4072090C00720FF
:1044A0005BC40720F2C307205EC407200023184620
:1044B000094AD118497809B10130C0B22433902B90
:1044C000F7D1064B5A780AB10130C0B293F82530C3
:1044D0000BB10130C0B2704756C307200AC4072091
:1044E000F0B51D460023ADF50B7D0E46174601467F
:1044F000012201A80093FDF763FA044670B91DB1CB
:10450000294601A8FDF7D8FC6B463A46314601A87A
:10451000FDF7EDFA044601A8FDF7BCFC20460DF5B9
:104520000B7DF0BD13460A460179006800F04ABAD7
:104530001FB5002204AB23F8042D02220479009257
:1045400000680A46214600F026FA9DF80C009DF806
:104550000D3043EA002004B010BD10B50446192206
:104560002A21FFF7DFFF0D222179206800F0FFF9F3
:10457000A0F12A035842584110BDFFFF044A138896
:104580001F2BDFBF581C1080024A42F823107047CF
:10459000F4C4072074C40720F0B5154E3388012BEE
:1045A00023DD144A00201546013B984208DA52F8F0
:1045B000041F013052F8044C091B42F8041CF4E7B4
:1045C00000214FF0010E0C46686800EB50008AB2E3
:1045D000934208DD55F822700131B8423CBF0EFA13
:1045E00002F21443F3E7044B1C6000233380F0BD58
:1045F000F4C4072074C40720F8C4072008B50121BB
:104600000220FBF715FF084B01209A6A22F00702EF
:104610009A629A6A42F006029A62044AD36843F0A8
:104620003003D36008BD00BF0080004000C00240DE
:1046300008B5044B417101F07F015A5C0321FFF77B
:1046400071FF08BD0514020008B5044B817101F02B
:104650007F015A5C0221FFF765FF08BD05140200C7
:1046600038B504460179006800F0C4F9054688B100
:10467000002206212046FFF755FF00220721204691
:10468000FFF750FF2E212046FFF7D2FF2E212046B4
:10469000FFF7DAFF284638BD70B56424B1FBF4F3A8
:1046A00003FB14140A21E4B2B4FBF1F501FB15413C
:1046B0003031C9B20646FFF7C7FF092C88BF05F1A4
:1046C00030013046BDE8704094BF2021C9B2FFF7E9
:1046D000AFBF01207047FFFF38B50C46054602F01A
:1046E00013FF012204F00F032B700E4B14F0010F87
:1046F00014BFDA619A61022214F0020F14BFDA616A
:104700009A61102214F0040F14BFDA619A614FF419
:10471000807214F0080F14BFDA619A61BDE8384066
:1047200002F002BF20C0092001207047022000F0E3
:1047300045BF01207047FFFF044B5B69180B00F079
:104740000C00C3F341231843704700BF20C0092069
:1047500010B5044681220121FFF7E4FE01222179F0
:10476000206800F004F910F0600F14BF0120002051
:1047700010BD38B500210446FFF7DAFE812205B2EC
:1047800001212046FFF7CEFE102095FBF0F005F04A
:10479000A5FA4FF0765105F0F5FAA16805F0EAF9AF
:1047A00038BDFFFF08B5FFF7E4FF054905F0EAFA59
:1047B000044905F09BFB4FF0844105F0DBF908BD8F
:1047C000000010410000A0400170427021B9084B68
:1047D0004360143383607047012901D1054BF7E72B
:1047E000022901D1044BF3E70429F4D1034BEFE78D
:1047F00000C0092020C0092040C0092080C0092035
:104800000122416840780B68824023EA02030B6072
:104810007047012342684078116883400B4313605E
:104820007047012382684078116883400B4313600E
:1048300070470122816840780B68824023EA0203B6
:104840000B607047836841781A6801238B401342DC
:1048500014BF01200020704770472DE9F04790F801
:10486000055104468A4617469946089EDDF824807D
:104870001DB100252846BDE8F0870AB9002EF8D002
:1048800002F046FD022835D00023202284F81131A1
:10489000D4F80031C4F81471C4F81C6184F810A174
:1048A000C4F81891C4F820811A60FBF725FD4FF475
:1048B0007A72002305F0D6FB10F57A7641F10007F5
:1048C0000023D4F80C011A46194602F02DF828B13D
:1048D00094F81151B5FA85F56D09CBE7FBF70CFD9E
:1048E0004FF47A72002305F0BDFB8F4208BF864269
:1048F000E6D2EDE700234FF47A721946D4F80801A6
:1049000002F012F80028B4D00023D4F80C011A46A3
:10491000194602F009F800232021D4F8002184F878
:1049200010A184F81131C4F81471C4F81891C4F8B6
:104930001C61C4F82081D4F80C0111604FF47A7224
:10494000194601F0F1FF20B194F81151B5FA85F53F
:104950006D090023D4F808011A46194601F0DCFE5F
:1049600088E710B441F0010110BCFFF776BF7FB5B6
:1049700000238DF8173001238DF80F200DF1170259
:10498000009201930DF10F02FFF7EBFF9DF8170066
:1049900007B05DF804FB1FB504AC04F8012D069ABE
:1049A0000093019201232246FFF7DBFF04B010BD04
:1049B00013B5002401F0FE0101940094FFF74DFFB0
:1049C00002B010BD07B58DF804208DF8053001AA9E
:1049D0000223FFF7EDFF03B05DF804FB07B58DE898
:1049E0000C00002341F001011A46FFF736FF03B027
:1049F0005DF804FB002307B502AA02F8013DFFF7AA
:104A0000EDFF03B05DF804FB38B500250446C0F89F
:104A1000001180F80551012001F000FF0322C4F8C5
:104A200008012946012001F055FED4F800310C4A56
:104A3000C4F80C0193420CD002F5882293420AD0AC
:104A4000A2F50422934208D10A2384F804312046B7
:104A500038BD0B23F9E70C23F7E76323F5E700BF25
:104A600000C0054090F9043170B50B2B05460C468B
:104A7000164635D00C2B36D00A2B37D10121072012
:104A8000FBF7D6FCB6F57A7F98BF4FF47A714FF0FA
:104A90006C0294BF71431649D5F80031B4FBF1F1B3
:104AA0009A612822642049084A43B2FBF0F21A6155
:104AB0003C2251430022B1FBF0F15961DA601A62E5
:104AC0005A629A62402201201A6095F90431094A1B
:104AD000590903F01F0300FA03F342F8213070BDB7
:104AE00001211320CCE701211A20C9E7002070BD65
:104AF000A086010000E100E02022D0F800319A6198
:104B000010221A6008229A611A68D206FCD490F822
:104B10001031DB074CBF0123022380F8243170479A
:104B2000002310B580F82431D0F8003104465A68CB
:104B3000282A44D00DD8102A27D0182A28D0082A8D
:104B40000CD1D0F8181190F81021B1B942F001023F
:104B500015E0402A3ED005D8382A59D05B6884F841
:104B600011311DE0502A3FD0582AF7D1D0F81C212E
:104B70009B681370FFF7C0FF04E002F0FE029A602A
:104B800008229A6194F8240110BD90F81021DDE705
:104B90002022D0F820119A61D0F8182111B90AB951
:104BA0002046E7E7002AEDD0D4F81411013A11F8B5
:104BB000010B9860C4F81411C4F81821E0E7D0F88C
:104BC0001821002AF0D190F81021D207E8D5202230
:104BD0001A60D5E720229A61D0F82021012A4FF0EF
:104BE0000402F5D89A61CBE79B68D0F81C211370BA
:104BF000D0F81C3104220133C0F81C31D0F8203128
:104C0000013B012BC0F82031D0F80031E0D1E9E7B9
:104C100090F810215B6812F0010F14BF01220222EC
:104C200080F8113180F82421ACE7FFFF13B504466A
:104C3000FFF776FF88B1002302A941F8043DD4F8BC
:104C40000C0101F03DFE019B3BB14FF08052044B43
:104C50001A60BFF34F8FBFF36F8F02B010BD00BF5C
:104C600004ED00E037B5044615468DF8071002F054
:104C70004FFB022809D063699DF807201A701A7D3E
:104C80005206FCD5012003B030BD00232A460DF1A9
:104C90000701E06901F040FD0028F4D063691B7D45
:104CA0005B06EFD500230DF107011A46E06901F01C
:104CB0003BFE0028E6D063699DF807201A70E1E703
:104CC00010B50446024B036000F04AF9204610BDBF
:104CD000A814020010B50446FFF7F2FF20462C216D
:104CE00004F07BF8204610BD10B5044602F010FB1E
:104CF000022807D1E06901F0E5FE18B1012002F0B9
:104D0000ABF9F7E7012010BDF8B5064614460F468B
:104D100009B90020F8BD8369002BFAD002F0F8FA37
:104D2000022809D1002322463946B06901F0FCFD72
:104D3000003018BF0120F8BDFBF7DEFA4FF47A729D
:104D4000002305F08FF900250444002339461A4654
:104D5000B06901F0E9FD58B9FBF7CEFA4FF47A7269
:104D6000002305F07FF98D4208BF8442EDD2D0E7E1
:104D70000120F8BD802310B5446909012373006A3E
:104D8000B0FBF1F004F0F8FB064B002204F0B8FA97
:104D900004F07AFE80B2030A23710323C0B22070AC
:104DA000237310BD0000E03F002373B542690193F7
:104DB0008DF803309368044603F00E03042B21D0D2
:104DC0000C2B1FD0022B3FD1C06901F084FEE38C75
:104DD000984203D9E06901F07EFEE08410260025A8
:104DE00001AA0DF10301E06901F038FE00282ED17F
:104DF0005DB34FF080521B4B1A60BFF34F8FBFF370
:104E00006F8F22E002F004F80025A06263691A7D2A
:104E1000D2070ED51B7801AA8DF803300DF10301DE
:104E20000023A06901F00CFD019B002B18BF012598
:104E3000ECE7A06901F04FFEA38C9842D8D9A06995
:104E400001F049FEA084D3E7137D02B070BD636911
:104E50009DF803201A70019B002B18BF0125013E0D
:104E6000C6D0BDE704ED00E038B504460D4600F0BD
:104E700067F8064B6561236000232046A361E36168
:104E80002362A384E384A36238BD00BFA814020098
:104E900070B516461D46254A436904469342016291
:104EA0002FD101210320FBF7C3FA2022204B3146EA
:104EB0001A604122636920461A721A7A42F0060289
:104EC0001A72FFF757FFA26942B9082D28464FF022
:104ED0000101B8BF082001F0FDFBA061E2693AB909
:104EE000049801210828B8BF082001F0F3FBE06115
:104EF000072263695A60A3690BB1E369A3B9002073
:104F000070BD0C4A934205D101211820FBF790FA9D
:104F10008022CBE7084A9342F1D101211920FBF707
:104F200087FA4FF48072C1E7012070BD00C00040D5
:104F300000E100E00080094000C009400120704706
:104F4000064B10B5036000230446436003810374DD
:104F5000012001F063FCE060204610BDD81402007F
:104F6000044B10B504460360406808B105F03EFEEE
:104F7000204610BDD814020010B50A4C23681BB996
:104F8000012001F04BFC206002F0C2F9022808D198
:104F9000002320684FF0FF32BDE81040194601F0B1
:104FA000C3BC10BDFCC4072010B502F0B1F9022843
:104FB00008D1BDE81040002303481A46194600688E
:104FC00001F0AABB10BD00BFFCC4072008B5044B0C
:104FD0001B689847034A137A43F00103137208BD14
:104FE00000C5072000000B40026830B5D36913F0FC
:104FF000040310D002F1300301F1100451F8045BF6
:10500000A14243F8045BF9D1438A0133438221234F
:105010000120536030BD184630BDFFFF2DE9FF4130
:10502000264C450154F805806719D8F80C60D8F86B
:1050300008303343D90716D5786801F04CFDFB8959
:1050400008F1200198424FF0000388BFF8816719EA
:105050001A46786801F0F4FB58B3BB8A0133BB826F
:105060000423C8F8043040F202631E4212D06719CC
:10507000B86801F030FD3B8A0022984288BF388230
:1050800067196946B86801F0E9FC18B16946384605
:10509000FFF7AAFFB20603D563199B69304698470C
:1050A000330703D52C44E3693046984704B0BDE884
:1050B000F081BB890133BB81D2E700BF98C00720D4
:1050C000084B10B5D3F8C440A20402D50020FFF766
:1050D000A5FF630404D5BDE810400120FFF79EBF83
:1050E00010BD00BF00C00F4010B50446024B036066
:1050F000FFF736FF204610BDA814020010B5044685
:10510000FFF7F2FF20462C2103F067FE204610BD7A
:1051100010B504460349FFF7A7FE034B2046236062
:1051200010BD00BF00C000404015020038B5074C5C
:10513000236833B92C2003F007F90546FFF7E8FF91
:1051400025602068BDE83840FFF72EBE04C5072063
:1051500010B50446024B0360FFF702FF204610BD66
:10516000A814020010B50446FFF7F2FF20462C21D8
:1051700003F033FE204610BDF7B50D460D49044639
:10518000486A164620F070604862486A1F4640F040
:105190007060486201211920FBF764F9FBF730FACF
:1051A0000097014633462A462046FFF771FE03B0BA
:1051B000F0BD00BF00C0024010B504460349FFF730
:1051C00053FE034B2046236010BD00BF00C00940C2
:1051D000A815020038B5074C236833B92C2003F01A
:1051E000B3F80546FFF7E8FF25602068BDE83840C2
:1051F000FFF7DABD08C5072070B505460E46144610
:105200000CB12B6803B970BD2268134208D06368E3
:10521000984722682B6823EA02032B6023683360D7
:10522000A468EDE7F8B5012484400F4616461D46F4
:1052300010D079B10C2005F0D1FC58B14FF4001218
:10524000336880E8900083602B6830601C43024B19
:105250002C601A60F8BD00BF00E100E01FB5184CDB
:105260001849636868460093A3680193636A0293D0
:10527000A36A0393144B1A68FFF7BEFF134B11493F
:105280001A6801A8FFF7B8FF114B12491A6802A863
:10529000FFF7B2FF104B0F491A6803A8FFF7ACFFE6
:1052A000009B0BB9019B13B14FF0FF33E360029BEE
:1052B0000BB9039B13B14FF0FF33E36204B010BD91
:1052C000808002408C80024010C507200CC507205A
:1052D00018C50720AC80024014C5072010B414463E
:1052E0000029064A0649074B18BF1346064A18BF4D
:1052F0000A46214610BCFFF795BF00BF94800240CC
:105300000CC507209080024010C507201FB5044639
:10531000054B0DF1100E0FCB0EE90F000EEB8404C0
:1053200054F8100C04B010BDBC150200F7B50F46C0
:105330000646FFF7EBFF17230124162202218DF802
:1053400003308DF8073002AB1E448DF802208DF833
:1053500001108DF8004005468DF8051016F8080C70
:1053600021468DF806208DF80440FBF761F82146B0
:1053700016F8040CFBF776F80023AB606C602B6723
:10538000FBF73EF9034BB0FBF3F04743EF6003B08C
:10539000F0BD00BF40420F0008B501211D20FBF702
:1053A00047F80122024B1A631A6BD207FCD508BDDD
:1053B000004000504FF0FF3337B5B1F5805F0193E7
:1053C0004AD2274B1C69E50748D4264C2469E407D8
:1053D00044D4254CE5686D0735D40325234CA560DE
:1053E0002561234D1D60002A2FD001AC5C6041F087
:1053F0000044DC6000249C6041F206041C61194CEE
:105400003AB3206041F080610022E1606560A260F3
:105410004FF4086222611A6942F001021A6122699E
:1054200042F001022261104A516A41F003015162C7
:10543000D868C0F30B000028FAD1536A23F00303A5
:10544000536203B030BDA568C4E7586041F008441A
:10545000CFE701AA2260D7E70120F2E70220F0E7B8
:105460002041005000410050000003400040005027
:105470000800034010B50446024B0360FFF770FDBF
:10548000204610BDA814020010B50446FFF7F2FF35
:1054900020462C2103F0A1FC204610BD10B5044687
:1054A0000349FFF7E1FC034B2046236010BD00BF1A
:1054B000008009402016020038B5074C236833B934
:1054C0002C2002F041FF0546FFF7E8FF2560206829
:1054D000BDE83840FFF768BC1CC50720074A1368C1
:1054E00023F0E06323F0FF0313600123116803FA44
:1054F00000F041F0807108431060704700400340A5
:10550000002307B50D4A019352680D48C2F30B12F0
:10551000ADF802200DF1020101AA006801F090F936
:10552000019B3BB14FF08052064B1A60BFF34F8F87
:10553000BFF36F8F03B05DF804FB00BF0040034072
:1055400024C5072004ED00E010B5FBF759F8012150
:10555000C4080C20FAF76CFF03210C20FAF782FF35
:105560004FF40013104A114913600223B4FBF3F007
:10557000884214D8116841EA03231360012001F026
:105580004DF90B4B002218600221012001F0A2F816
:105590004FF48002074B1860074B1A6010BD0233AE
:1055A000B3F5807FE2D1E9E7004003403F5DC600EC
:1055B00020C5072024C5072000E100E0F7B500243E
:1055C00007280546ADF806401DD801F0A1FE0228C7
:1055D000154E1CD1154F23464FF0FF322146386837
:1055E00001F0A2F92846FFF779FF23464FF0FF327A
:1055F0000DF10601306801F097F923462246214655
:10560000386801F089F8BDF8060003B0F0BD2846FF
:10561000FFF764FF00230DF106011A46306801F020
:1056200083F90028F6D0EEE724C5072020C507201F
:10563000F0B587B06C460F4D074695E807008DE83A
:10564000070003AE95E8070086E807000C22314604
:10565000204605F0F3FA38B903CC38602068796049
:10566000B860384607B0F0BD95E8070084E8070049
:10567000E8E700BF144002400022184B1A7202787B
:10568000C2F3050283F820204278C2F3050283F8B2
:1056900024208278C2F3040283F82820C278C2F35F
:1056A000020283F830200279C2F3040283F82C202E
:1056B0004279C2F3030283F83820C179827901F07C
:1056C0000F0142EA0122417A9A87027A01F00F0122
:1056D00042EA01229A8601221A7270470040024073
:1056E0001FB501210920FAF7A3FE01222F4B01A8C3
:1056F0001A72FFF79DFFBDF80A3003F62603C3F3C5
:105700000B030F2B1ED89DF8053003F03F033B2BF6
:1057100018DC9DF8043003F03F033B2B12DC9DF8AE
:10572000063003F01F03172B0CDCBDF80C30C3F35D
:105730000B03B3F5B77F05DA9DF8093003F00F03CB
:105740000C2B2FDD01229DF8083001A862F3040321
:105750008DF808309DF8093062F3030340F2DA72E5
:105760008DF80930BDF80A3062F30B03ADF80A304A
:105770009DF807306FF302038DF807309DF806306F
:105780006FF304038DF806309DF805306FF30503C1
:105790008DF805309DF804306FF305038DF8043063
:1057A000FFF76AFF05B05DF804FB00BF0040024050
:1057B00070B5184B0E465C69174B05461A6C1A20DB
:1057C00022F470021A641A6C04F4406442F4200259
:1057D0001A64996E41F440619966196821F4700168
:1057E0001960196841F4200119600321FAF73AFEA3
:1057F000FAF706FFB4F5406F06D13246C1082846D5
:10580000BDE87040FFF72EB90123002085F805316F
:1058100070BD00BF00C0092000C0024010B50446A2
:105820000249FFF7F1F8204610BD00BF00000A4012
:1058300038B5084C23683BB94FF4947002F084FDEE
:105840000546FFF7EBFF25602068BDE83840FFF70D
:10585000EDB900BF28C5072008B5006806F02DFF88
:10586000003018BF012008BD07B5002330B1024643
:10587000044800930449006800F06AFB03B05DF837
:1058800004FB00BF2CC5072059580100F8B5064697
:1058900010B900242046F8BD0378002BF9D0154D2F
:1058A0002B6813B900F02EFB28603046FFF7DCFFB1
:1058B00007460028EDD1082005F090F9044600289D
:1058C000E7D080E8C00000F01DFB606018B92046FA
:1058D00005F08CF9DDE72868214600F01DFB054640
:1058E0000028D7D1606805F081F9204605F07EF9DF
:1058F0002C46CFE72CC5072008B542684B689A4272
:1059000007D00968006806F0D8FE003018BF0120F3
:1059100008BD002008BD08B50B460168184606F012
:10592000CCFE003018BF012008BDFFFF2DE9F74372
:10593000894690461F46BDF82850064620B90025E6
:10594000284603B0BDE8F0830029F8D0002AF6D03D
:10595000002BF4D0142005F041F904460028EED0C5
:105960009DF82C30002D037408BF01250023C5606D
:10597000C0F80090C0F8048087600093024609498F
:10598000706800F0FBFA054618B9204605F02EF9BC
:10599000D6E72146706800F0BFFA05460028CFD14F
:1059A000F3E700BFF958010013B50A4640B149B109
:1059B0000C78002344B100930449406800F0C8FA11
:1059C00002B010BD0846FBE72046F9E71759010071
:1059D0002DE9F04FC9B008AE0546802200213046BF
:1059E00005F060F90024DFF89CA12A467F213046AB
:1059F00004F08EFE18B9204649B0BDE8F08F60492A
:105A0000304606F09BFE8642EFD13A2106F047FE73
:105A100000F101083A21404606F041FE0746002801
:105A2000E3D0002303704046FFF71EFF01900028DB
:105A3000DBD0781C04F0A5FC80460DF1A009B8F17C
:105A4000000F01D10124D0E7002480220021484624
:105A500005F028F92746284604F0F0FD431C19D02C
:105A60003A2819D10137032F16DD002407AA514621
:105A70004846079407F0D1FC07AA5146074620463E
:105A800007F0CBFC07AA83465146204607F0C5FC29
:105A900004463FB90024AEE709F8040001347F2C26
:105AA000D9D1E2E7BBF1000FF4D00028F2D058467C
:105AB00004F067FC8346204604F063FC394600FB93
:105AC0000BFB0198FFF770FF80B18268C3685343F6
:105AD0009B450BD1476807EB0B034FF0FF3B03934C
